{"abi":[{"type":"constructor","inputs":[{"name":"priceFeed","type":"address","internalType":"address"}],"stateMutability":"nonpayable"},{"type":"fallback","stateMutability":"payable"},{"type":"receive","stateMutability":"payable"},{"type":"function","name":"MINIMUM_USD","inputs":[],"outputs":[{"name":"","type":"uint256","internalType":"uint256"}],"stateMutability":"view"},{"type":"function","name":"fund","inputs":[],"outputs":[],"stateMutability":"payable"},{"type":"function","name":"getAddressToAmountFunded","inputs":[{"name":"fundingAddress","type":"address","internalType":"address"}],"outputs":[{"name":"","type":"uint256","internalType":"uint256"}],"stateMutability":"view"},{"type":"function","name":"getFunder","inputs":[{"name":"index","type":"uint256","internalType":"uint256"}],"outputs":[{"name":"","type":"address","internalType":"address"}],"stateMutability":"view"},{"type":"function","name":"getOwner","inputs":[],"outputs":[{"name":"","type":"address","internalType":"address"}],"stateMutability":"view"},{"type":"function","name":"getVersion","inputs":[],"outputs":[{"name":"","type":"uint256","internalType":"uint256"}],"stateMutability":"view"},{"type":"function","name":"withdraw","inputs":[],"outputs":[],"stateMutability":"nonpayable"},{"type":"error","name":"FundMe_NotOwner","inputs":[]}],"bytecode":{"object":"0x608060405234801561000f575f5ffd5b50604051610e91380380610e9183398181016040528101906100319190610115565b3360025f6101000a81548173ffffffffffffffffffffffffffffffffffffffff021916908373ffffffffffffffffffffffffffffffffffffffff1602179055508060035f6101000a81548173ffffffffffffffffffffffffffffffffffffffff021916908373ffffffffffffffffffffffffffffffffffffffff16021790555050610140565b5f5ffd5b5f73ffffffffffffffffffffffffffffffffffffffff82169050919050565b5f6100e4826100bb565b9050919050565b6100f4816100da565b81146100fe575f5ffd5b50565b5f8151905061010f816100eb565b92915050565b5f6020828403121561012a576101296100b7565b5b5f61013784828501610101565b91505092915050565b610d448061014d5f395ff3fe608060405260043610610073575f3560e01c80636b69a5921161004d5780636b69a59214610108578063893d20e814610132578063b60d42881461015c578063d7b4750c1461016657610082565b80630343fb251461008c5780630d8e6e2c146100c85780633ccfd60b146100f257610082565b36610082576100806101a2565b005b61008a6101a2565b005b348015610097575f5ffd5b506100b260048036038101906100ad919061081e565b6102d4565b6040516100bf9190610861565b60405180910390f35b3480156100d3575f5ffd5b506100dc610319565b6040516100e99190610861565b60405180910390f35b3480156100fd575f5ffd5b506101066103ad565b005b348015610113575f5ffd5b5061011c6105de565b6040516101299190610861565b60405180910390f35b34801561013d575f5ffd5b506101466105ea565b6040516101539190610889565b60405180910390f35b6101646101a2565b005b348015610171575f5ffd5b5061018c600480360381019061018791906108cc565b610612565b6040516101999190610889565b60405180910390f35b674563918244f400006101df60035f9054906101000a900473ffffffffffffffffffffffffffffffffffffffff163461065690919063ffffffff16565b1015610220576040517f08c379a000000000000000000000000000000000000000000000000000000000815260040161021790610951565b60405180910390fd5b345f5f3373ffffffffffffffffffffffffffffffffffffffff1673ffffffffffffffffffffffffffffffffffffffff1681526020019081526020015f205f82825461026b919061099c565b92505081905550600133908060018154018082558091505060019003905f5260205f20015f9091909190916101000a81548173ffffffffffffffffffffffffffffffffffffffff021916908373ffffffffffffffffffffffffffffffffffffffff160217905550565b5f5f5f8373ffffffffffffffffffffffffffffffffffffffff1673ffffffffffffffffffffffffffffffffffffffff1681526020019081526020015f20549050919050565b5f60035f9054906101000a900473ffffffffffffffffffffffffffffffffffffffff1673ffffffffffffffffffffffffffffffffffffffff166354fd4d506040518163ffffffff1660e01b8152600401602060405180830381865afa158015610384573d5f5f3e3d5ffd5b505050506040513d601f19601f820116820180604052508101906103a891906109e3565b905090565b60025f9054906101000a900473ffffffffffffffffffffffffffffffffffffffff1673ffffffffffffffffffffffffffffffffffffffff163373ffffffffffffffffffffffffffffffffffffffff1614610433576040517f10e0797900000000000000000000000000000000000000000000000000000000815260040160405180910390fd5b5f5f90505b6001805490508110156104d3575f6001828154811061045a57610459610a0e565b5b905f5260205f20015f9054906101000a900473ffffffffffffffffffffffffffffffffffffffff1690505f5f5f8373ffffffffffffffffffffffffffffffffffffffff1673ffffffffffffffffffffffffffffffffffffffff1681526020019081526020015f2081905550508080600101915050610438565b505f67ffffffffffffffff8111156104ee576104ed610a3b565b5b60405190808252806020026020018201604052801561051c5781602001602082028036833780820191505090505b506001908051906020019061053292919061071e565b505f3373ffffffffffffffffffffffffffffffffffffffff164760405161055890610a95565b5f6040518083038185875af1925050503d805f8114610592576040519150601f19603f3d011682016040523d82523d5f602084013e610597565b606091505b50509050806105db576040517f08c379a00000000000000000000000000000000000000000000000000000000081526004016105d290610af3565b60405180910390fd5b50565b674563918244f4000081565b5f60025f9054906101000a900473ffffffffffffffffffffffffffffffffffffffff16905090565b5f6001828154811061062757610626610a0e565b5b905f5260205f20015f9054906101000a900473ffffffffffffffffffffffffffffffffffffffff169050919050565b5f5f61066183610690565b90505f670de0b6b3a764000085836106799190610b11565b6106839190610b7f565b9050809250505092915050565b5f5f8273ffffffffffffffffffffffffffffffffffffffff1663feaf968c6040518163ffffffff1660e01b815260040160a060405180830381865afa1580156106db573d5f5f3e3d5ffd5b505050506040513d601f19601f820116820180604052508101906106ff9190610c21565b5050509150506402540be400816107169190610c98565b915050919050565b828054828255905f5260205f20908101928215610794579160200282015b82811115610793578251825f6101000a81548173ffffffffffffffffffffffffffffffffffffffff021916908373ffffffffffffffffffffffffffffffffffffffff1602179055509160200191906001019061073c565b5b5090506107a191906107a5565b5090565b5b808211156107bc575f815f9055506001016107a6565b5090565b5f5ffd5b5f73ffffffffffffffffffffffffffffffffffffffff82169050919050565b5f6107ed826107c4565b9050919050565b6107fd816107e3565b8114610807575f5ffd5b50565b5f81359050610818816107f4565b92915050565b5f60208284031215610833576108326107c0565b5b5f6108408482850161080a565b91505092915050565b5f819050919050565b61085b81610849565b82525050565b5f6020820190506108745f830184610852565b92915050565b610883816107e3565b82525050565b5f60208201905061089c5f83018461087a565b92915050565b6108ab81610849565b81146108b5575f5ffd5b50565b5f813590506108c6816108a2565b92915050565b5f602082840312156108e1576108e06107c0565b5b5f6108ee848285016108b8565b91505092915050565b5f82825260208201905092915050565b7f596f75206e65656420746f207370656e64206d6f7265204554482100000000005f82015250565b5f61093b601b836108f7565b915061094682610907565b602082019050919050565b5f6020820190508181035f8301526109688161092f565b9050919050565b7f4e487b71000000000000000000000000000000000000000000000000000000005f52601160045260245ffd5b5f6109a682610849565b91506109b183610849565b92508282019050808211156109c9576109c861096f565b5b92915050565b5f815190506109dd816108a2565b92915050565b5f602082840312156109f8576109f76107c0565b5b5f610a05848285016109cf565b91505092915050565b7f4e487b71000000000000000000000000000000000000000000000000000000005f52603260045260245ffd5b7f4e487b71000000000000000000000000000000000000000000000000000000005f52604160045260245ffd5b5f81905092915050565b50565b5f610a805f83610a68565b9150610a8b82610a72565b5f82019050919050565b5f610a9f82610a75565b9150819050919050565b7f43616c6c206661696c65640000000000000000000000000000000000000000005f82015250565b5f610add600b836108f7565b9150610ae882610aa9565b602082019050919050565b5f6020820190508181035f830152610b0a81610ad1565b9050919050565b5f610b1b82610849565b9150610b2683610849565b9250828202610b3481610849565b91508282048414831517610b4b57610b4a61096f565b5b5092915050565b7f4e487b71000000000000000000000000000000000000000000000000000000005f52601260045260245ffd5b5f610b8982610849565b9150610b9483610849565b925082610ba457610ba3610b52565b5b828204905092915050565b5f69ffffffffffffffffffff82169050919050565b610bcd81610baf565b8114610bd7575f5ffd5b50565b5f81519050610be881610bc4565b92915050565b5f819050919050565b610c0081610bee565b8114610c0a575f5ffd5b50565b5f81519050610c1b81610bf7565b92915050565b5f5f5f5f5f60a08688031215610c3a57610c396107c0565b5b5f610c4788828901610bda565b9550506020610c5888828901610c0d565b9450506040610c69888289016109cf565b9350506060610c7a888289016109cf565b9250506080610c8b88828901610bda565b9150509295509295909350565b5f610ca282610bee565b9150610cad83610bee565b9250828202610cbb81610bee565b91507f800000000000000000000000000000000000000000000000000000000000000084145f84121615610cf257610cf161096f565b5b8282058414831517610d0757610d0661096f565b5b509291505056fea26469706673582212201980b7c54f1ff920cb6a40644e2f70c13205722cf5146dcf742fd116990118c564736f6c634300081e0033","linkReferences":{}},"methodIdentifiers":{"MINIMUM_USD()":"6b69a592","fund()":"b60d4288","getAddressToAmountFunded(address)":"0343fb25","getFunder(uint256)":"d7b4750c","getOwner()":"893d20e8","getVersion()":"0d8e6e2c","withdraw()":"3ccfd60b"},"id":23}