{"abi":[{"type":"constructor","inputs":[{"name":"priceFeed","type":"address","internalType":"address"}],"stateMutability":"nonpayable"},{"type":"fallback","stateMutability":"payable"},{"type":"receive","stateMutability":"payable"},{"type":"function","name":"MINIMUM_USD","inputs":[],"outputs":[{"name":"","type":"uint256","internalType":"uint256"}],"stateMutability":"view"},{"type":"function","name":"cheaperWithdraw","inputs":[],"outputs":[],"stateMutability":"nonpayable"},{"type":"function","name":"fund","inputs":[],"outputs":[],"stateMutability":"payable"},{"type":"function","name":"getAddressToAmountFunded","inputs":[{"name":"fundingAddress","type":"address","internalType":"address"}],"outputs":[{"name":"","type":"uint256","internalType":"uint256"}],"stateMutability":"view"},{"type":"function","name":"getFunder","inputs":[{"name":"index","type":"uint256","internalType":"uint256"}],"outputs":[{"name":"","type":"address","internalType":"address"}],"stateMutability":"view"},{"type":"function","name":"getOwner","inputs":[],"outputs":[{"name":"","type":"address","internalType":"address"}],"stateMutability":"view"},{"type":"function","name":"getVersion","inputs":[],"outputs":[{"name":"","type":"uint256","internalType":"uint256"}],"stateMutability":"view"},{"type":"function","name":"withdraw","inputs":[],"outputs":[],"stateMutability":"nonpayable"},{"type":"error","name":"FundMe_NotOwner","inputs":[]}],"bytecode":{"object":"0x608060405234801561000f575f5ffd5b5060405161103f38038061103f83398181016040528101906100319190610115565b3360025f6101000a81548173ffffffffffffffffffffffffffffffffffffffff021916908373ffffffffffffffffffffffffffffffffffffffff1602179055508060035f6101000a81548173ffffffffffffffffffffffffffffffffffffffff021916908373ffffffffffffffffffffffffffffffffffffffff16021790555050610140565b5f5ffd5b5f73ffffffffffffffffffffffffffffffffffffffff82169050919050565b5f6100e4826100bb565b9050919050565b6100f4816100da565b81146100fe575f5ffd5b50565b5f8151905061010f816100eb565b92915050565b5f6020828403121561012a576101296100b7565b5b5f61013784828501610101565b91505092915050565b610ef28061014d5f395ff3fe60806040526004361061007e575f3560e01c8063893d20e81161004d578063893d20e81461013d578063b60d428814610167578063be2693f014610171578063d7b4750c146101875761008d565b80630343fb25146100975780630d8e6e2c146100d35780633ccfd60b146100fd5780636b69a592146101135761008d565b3661008d5761008b6101c3565b005b6100956101c3565b005b3480156100a2575f5ffd5b506100bd60048036038101906100b891906109cc565b6102f5565b6040516100ca9190610a0f565b60405180910390f35b3480156100de575f5ffd5b506100e761033a565b6040516100f49190610a0f565b60405180910390f35b348015610108575f5ffd5b506101116103ce565b005b34801561011e575f5ffd5b50610127610556565b6040516101349190610a0f565b60405180910390f35b348015610148575f5ffd5b50610151610562565b60405161015e9190610a37565b60405180910390f35b61016f6101c3565b005b34801561017c575f5ffd5b5061018561058a565b005b348015610192575f5ffd5b506101ad60048036038101906101a89190610a7a565b6107c0565b6040516101ba9190610a37565b60405180910390f35b674563918244f4000061020060035f9054906101000a900473ffffffffffffffffffffffffffffffffffffffff163461080490919063ffffffff16565b1015610241576040517f08c379a000000000000000000000000000000000000000000000000000000000815260040161023890610aff565b60405180910390fd5b345f5f3373ffffffffffffffffffffffffffffffffffffffff1673ffffffffffffffffffffffffffffffffffffffff1681526020019081526020015f205f82825461028c9190610b4a565b92505081905550600133908060018154018082558091505060019003905f5260205f20015f9091909190916101000a81548173ffffffffffffffffffffffffffffffffffffffff021916908373ffffffffffffffffffffffffffffffffffffffff160217905550565b5f5f5f8373ffffffffffffffffffffffffffffffffffffffff1673ffffffffffffffffffffffffffffffffffffffff1681526020019081526020015f20549050919050565b5f60035f9054906101000a900473ffffffffffffffffffffffffffffffffffffffff1673ffffffffffffffffffffffffffffffffffffffff166354fd4d506040518163ffffffff1660e01b8152600401602060405180830381865afa1580156103a5573d5f5f3e3d5ffd5b505050506040513d601f19601f820116820180604052508101906103c99190610b91565b905090565b60025f9054906101000a900473ffffffffffffffffffffffffffffffffffffffff1673ffffffffffffffffffffffffffffffffffffffff163373ffffffffffffffffffffffffffffffffffffffff1614610454576040517f10e0797900000000000000000000000000000000000000000000000000000000815260040160405180910390fd5b5f5f90505b6001805490508110156104f4575f6001828154811061047b5761047a610bbc565b5b905f5260205f20015f9054906101000a900473ffffffffffffffffffffffffffffffffffffffff1690505f5f5f8373ffffffffffffffffffffffffffffffffffffffff1673ffffffffffffffffffffffffffffffffffffffff1681526020019081526020015f2081905550508080600101915050610459565b505f67ffffffffffffffff81111561050f5761050e610be9565b5b60405190808252806020026020018201604052801561053d5781602001602082028036833780820191505090505b50600190805190602001906105539291906108cc565b50565b674563918244f4000081565b5f60025f9054906101000a900473ffffffffffffffffffffffffffffffffffffffff16905090565b60025f9054906101000a900473ffffffffffffffffffffffffffffffffffffffff1673ffffffffffffffffffffffffffffffffffffffff163373ffffffffffffffffffffffffffffffffffffffff1614610610576040517f10e0797900000000000000000000000000000000000000000000000000000000815260040160405180910390fd5b5f60018054905090505f5f90505b818110156106b4575f6001828154811061063b5761063a610bbc565b5b905f5260205f20015f9054906101000a900473ffffffffffffffffffffffffffffffffffffffff1690505f5f5f8373ffffffffffffffffffffffffffffffffffffffff1673ffffffffffffffffffffffffffffffffffffffff1681526020019081526020015f208190555050808060010191505061061e565b505f67ffffffffffffffff8111156106cf576106ce610be9565b5b6040519080825280602002602001820160405280156106fd5781602001602082028036833780820191505090505b50600190805190602001906107139291906108cc565b505f3373ffffffffffffffffffffffffffffffffffffffff164760405161073990610c43565b5f6040518083038185875af1925050503d805f8114610773576040519150601f19603f3d011682016040523d82523d5f602084013e610778565b606091505b50509050806107bc576040517f08c379a00000000000000000000000000000000000000000000000000000000081526004016107b390610ca1565b60405180910390fd5b5050565b5f600182815481106107d5576107d4610bbc565b5b905f5260205f20015f9054906101000a900473ffffffffffffffffffffffffffffffffffffffff169050919050565b5f5f61080f8361083e565b90505f670de0b6b3a764000085836108279190610cbf565b6108319190610d2d565b9050809250505092915050565b5f5f8273ffffffffffffffffffffffffffffffffffffffff1663feaf968c6040518163ffffffff1660e01b815260040160a060405180830381865afa158015610889573d5f5f3e3d5ffd5b505050506040513d601f19601f820116820180604052508101906108ad9190610dcf565b5050509150506402540be400816108c49190610e46565b915050919050565b828054828255905f5260205f20908101928215610942579160200282015b82811115610941578251825f6101000a81548173ffffffffffffffffffffffffffffffffffffffff021916908373ffffffffffffffffffffffffffffffffffffffff160217905550916020019190600101906108ea565b5b50905061094f9190610953565b5090565b5b8082111561096a575f815f905550600101610954565b5090565b5f5ffd5b5f73ffffffffffffffffffffffffffffffffffffffff82169050919050565b5f61099b82610972565b9050919050565b6109ab81610991565b81146109b5575f5ffd5b50565b5f813590506109c6816109a2565b92915050565b5f602082840312156109e1576109e061096e565b5b5f6109ee848285016109b8565b91505092915050565b5f819050919050565b610a09816109f7565b82525050565b5f602082019050610a225f830184610a00565b92915050565b610a3181610991565b82525050565b5f602082019050610a4a5f830184610a28565b92915050565b610a59816109f7565b8114610a63575f5ffd5b50565b5f81359050610a7481610a50565b92915050565b5f60208284031215610a8f57610a8e61096e565b5b5f610a9c84828501610a66565b91505092915050565b5f82825260208201905092915050565b7f596f75206e65656420746f207370656e64206d6f7265204554482100000000005f82015250565b5f610ae9601b83610aa5565b9150610af482610ab5565b602082019050919050565b5f6020820190508181035f830152610b1681610add565b9050919050565b7f4e487b71000000000000000000000000000000000000000000000000000000005f52601160045260245ffd5b5f610b54826109f7565b9150610b5f836109f7565b9250828201905080821115610b7757610b76610b1d565b5b92915050565b5f81519050610b8b81610a50565b92915050565b5f60208284031215610ba657610ba561096e565b5b5f610bb384828501610b7d565b91505092915050565b7f4e487b71000000000000000000000000000000000000000000000000000000005f52603260045260245ffd5b7f4e487b71000000000000000000000000000000000000000000000000000000005f52604160045260245ffd5b5f81905092915050565b50565b5f610c2e5f83610c16565b9150610c3982610c20565b5f82019050919050565b5f610c4d82610c23565b9150819050919050565b7f43616c6c206661696c65640000000000000000000000000000000000000000005f82015250565b5f610c8b600b83610aa5565b9150610c9682610c57565b602082019050919050565b5f6020820190508181035f830152610cb881610c7f565b9050919050565b5f610cc9826109f7565b9150610cd4836109f7565b9250828202610ce2816109f7565b91508282048414831517610cf957610cf8610b1d565b5b5092915050565b7f4e487b71000000000000000000000000000000000000000000000000000000005f52601260045260245ffd5b5f610d37826109f7565b9150610d42836109f7565b925082610d5257610d51610d00565b5b828204905092915050565b5f69ffffffffffffffffffff82169050919050565b610d7b81610d5d565b8114610d85575f5ffd5b50565b5f81519050610d9681610d72565b92915050565b5f819050919050565b610dae81610d9c565b8114610db8575f5ffd5b50565b5f81519050610dc981610da5565b92915050565b5f5f5f5f5f60a08688031215610de857610de761096e565b5b5f610df588828901610d88565b9550506020610e0688828901610dbb565b9450506040610e1788828901610b7d565b9350506060610e2888828901610b7d565b9250506080610e3988828901610d88565b9150509295509295909350565b5f610e5082610d9c565b9150610e5b83610d9c565b9250828202610e6981610d9c565b91507f800000000000000000000000000000000000000000000000000000000000000084145f84121615610ea057610e9f610b1d565b5b8282058414831517610eb557610eb4610b1d565b5b509291505056fea264697066735822122045a3f4dd62083b7b019ecaea32da0db57f62400578f0ec9f6e2a38412927462f64736f6c634300081e0033","linkReferences":{}},"methodIdentifiers":{"MINIMUM_USD()":"6b69a592","cheaperWithdraw()":"be2693f0","fund()":"b60d4288","getAddressToAmountFunded(address)":"0343fb25","getFunder(uint256)":"d7b4750c","getOwner()":"893d20e8","getVersion()":"0d8e6e2c","withdraw()":"3ccfd60b"},"id":23}